:400000000080002011000000551100005511000080B500AF024A034B1B68136001F0C8F8BC760040FA46004010B5054C237833B9044B13B10448AFF300800123237010BD8A
:400040009081FF1F00000000643A0000084B10B51BB108480849AFF300800848036803B910BD074B002BFBD0BDE81040184700BF00000000643A00009481FF1F0881FF1FF5
:400080000000000090B486B000AF7860144B1B68144A1B01134407F108040FCB84E80F000F4B1B685A1C104B83FB02131911D317CB1A322101FB03F3D31A094A13600B4BAB
:4000C0001B68013B094A13607B681C4607F108030FCB84E80F0078681837BD4690BC7047C481FF1FF082FF1F1F85EB51C081FF1F90B587B000AF0446084611461A46234694
:40010000FB710346BB710B467B7113463B71FB793B72BB797B727B79BB723B79FB7297F828303B7397F82C307B7397F83030BB7397F83430FB7308233B74FF237B6107F15C
:4001400008031846FF2100F003F81C37BD4690BD80B586B000AF786039603B68FB6000233B7400237B740023FB747B687B617B681B7ABB7407F10C03184602F00BFA012383
:400180005BB218461837BD4680BD00BF80B500AF01F05CFB01F034FC01F0CCFC034801F055FD034B08221A6080BD00BFB501000000E100E090B585B000AF2F4B1B889BB2FA
:4001C0001BB25A1C2D4B82FB03015318D911D317C91A0B461B025B1AD11A8AB2264B1A80254B1B889BB21CB201F0E8FB0346DAB2234B1A55204B1B889BB21BB2022B25DD81
:400200001D4B1B889BB21AB21D4BDB78DBB203339A422EDB00BF1B4B1B78DBB203F00403002BF8D1164A3B1D1068516803C312891A803B1D184600F03BF801F0E1FB01F089
:4002400079FC0D4B4FF6FF721A8012E00A4B1B889BB21BB2012B0CDC074B1B889BB21BB2074AD35CDBB2FF2B03D0034B4FF6FF721A801437BD4690BDAC81FF1F81808080AB
:40028000EC81FF1F6B65004080B582B000AF78607868092101F00CFC00BF01F029FC0346002BFAD1786803F017FB0837BD4680BD80B588B000AF78607B681B793B733023CE
:4002C0007B73174B1B78BB737B689B78FB730023FB770FE0FB7F0433FA7F053211467A680A44127807F120010B4403F8142CFB7F0133FB77FA7F7B6803331B78013B9A4293
:40030000E8DBFB7F0333FB77FB7F3B7507F10C031846FF21FFF71CFF2037BD4680BD00BFCD81FF1F80B582B000AF03460A46FB711346BB71FA79BB79104618211A4600F030
:40034000D3F8034618460837BD4680BD80B582B000AF03460A46FB711346BB80FA79BB8810461E211A4600F061F8034618460837BD4680BD80B582B000AF03460A46FB71A8
:400380001346BB80FA79BB8810461E211A4600F02DF8034618460837BD4680BD80B582B000AF03460A46FB711346BB80FA79BB88104620211A4600F019F803461846083780
:4003C000BD4680BD80B582B000AF03460A46FB711346BB80FA79BB88104622211A4600F005F8034618460837BD4680BD80B584B000AF0346FB710B46BB711346BB80BB793A
:400400003B73BB88DBB27B73BB881B0A9BB2DBB2BB73FA7907F10C0310461946032200F04FF8034618461037BD4680BD80B584B000AF0346FB710B46BB711346BB80BB7915
:400440003B73BB88DBB27B73BB881B0A9BB2DBB2BB73FA7907F10C0310461946032200F057F8034618461037BD4680BD80B582B000AF0346FB710B46BB7113467B71F979E0
:40048000BA797B79084611461A4600F02DF8034618460837BD4680BD80B582B000AF0346FB710B46BB7113467B71F979BA797B79022000F04DF8034618460837BD4680BD32
:4004C00080B582B000AF03463960FB711346BB71FA79BB79032011463A6800F05BF8034618460837BD4680BD80B582B000AF0346FB710B46BB7113467B71F979BA797B79C1
:40050000032000F025F8034618460837BD4680BD80B582B000AF03463960FB711346BB71FA79BB79042011463A6800F033F8034618460837BD4680BD80B500AF0520FE214F
:400540000022002300F026F80346184680BD00BF90B585B000AF0446084611461A462346FB710346BB710B467B7113463B717B793B733B797B73F979BA7907F10C03084643
:4005800011461A46022300F005F8034618461437BD4690BD90B585B000AF3A601A460346FB710B46BB7113467B717B790633184603F08AF90346BB600023BB73BB7B5A1C34
:4005C000BA731A46BB681344FF221A70BB7B5A1CBA731A46BB681344FF221A70BB7B5A1CBA731A46BB681344BA791A70BB7B5A1CBA731A46BB6813447A790232D2B21A7093
:40060000BB7B5A1CBA731A46BB681344FA791A700023FB730DE0BB7B5A1CBA731A46BB681344FA7B39680A4412781A70FB7B0133FB73FA7B7B799A42EDD3BB7BBA68D41800
:40064000B86800F007F803462370BB6818461437BD4690BD80B485B000AF78607B6803331B7801337B730023BB730023FB730BE0FB7B02331A467B6813441A78BB7B134484
:40068000BB73FB7B0133FB73FA7B7B7B9A42EFD3BB7BDB43DBB218461437BD465DF8047B704700BF80B500AF02F0F0F8052001F071F802F09FF980BD80B582B000AF0120D9
:4006C00002F07AF903461A46344B5A70022002F073F903461A46314B9A70032002F06CF903461A462D4BDA70042002F065F903461A462A4B1A71052002F05EF90346FB71CF
:40070000062002F059F90346BB71BB791B029AB2FB799BB213439BB29AB2214B9A80072002F04AF90346FB71082002F045F90346BB71BB791B029AB2FB799BB213439BB228
:400740009AB2174BDA80092002F036F90346FB710A2002F031F90346BB71BB791B029AB2FB799BB213439BB29AB20D4B1A800B2002F022F90346FB710C2002F01DF903460E
:40078000BB71BB791B029AB2FB799BB213439BB29AB2034B5A800837BD4680BDB081FF1FB881FF1F80B584B000AF0346FB71FB79184600F051F80346FB73FB7B002B09D06A
:4007C000FB7B9BB20020194602F066F8FB7B034A0021D1541037BD4680BD00BFB081FF1F80B582B000AF03460A46FB711346BB71BB79002B2AD0BB79013B032B22D801A295
:4008000052F823F015080000210800002D08000039080000FB791846012102F03DF811E0FB791846022102F037F80BE0FB791846032102F031F805E0FB791846042102F0B3
:400840002BF800BFBB790349FA79CA540837BD4680BD00BFB081FF1F80B485B000AF0346FB710023FB600CE00B4AFB6813441B78FA799A4202D1FB68DBB206E0FB68013390
:40088000FB60FB68042BEFDD002318461437BD465DF8047B704700BFB081FF1F80B582B000AF78607B6801331A784E4B1B799A4247D17B6802331B78062B1ED17B68053379
:4008C0001B789BB21B029AB27B6804331B789BB213449AB2444B1A80434B1B88DBB21846092101F0D9FF404B1B881B0A9BB2DBB218460A2101F0D0FF70E07B6802331B7869
:40090000082B6BD17B6805331B789BB21B029AB27B6804331B789BB213449AB2324B5A80314B5B88DBB218460B2101F0B5FF2E4B5B881B0A9BB2DBB218460C2101F0ACFF53
:400940004CE07B6801331A78264BDB789A4245D17B6802331B78062B1DD17B6805331B789BB21B029AB27B6804331B789BB213449AB21D4B9A801C4B9B88DBB21846052104
:4009800001F08AFF184B9B881B0A9BB2DBB21846062101F081FF7B6802331B78082B1DD17B6805331B789BB21B029AB27B6804331B789BB213449AB20B4BDA800A4BDB880D
:4009C000DBB21846072101F067FF074BDB881B0A9BB2DBB21846082101F05EFF0837BD4680BD00BFB081FF1FB881FF1F80B500AF02F020F902F038F902F0BAFA02F0E6F997
:400A00002C4802F02FFC02F07BFC2B4B1B88013B0F2B3FD801A252F823F000BF5D0A00006B0A0000950A0000790A0000950A0000950A0000950A0000950A0000950A00003E
:400A4000950A0000950A0000950A0000950A0000950A0000950A0000870A0000002002F08BFB002002F0A6FB15E0012002F084FB002002F09FFB0EE0002002F07DFB012014
:400A800002F098FB07E0012002F076FB012002F091FB00E000BF094B1B78184602F0A6FB002002F0C1FB064B00221A7000F00AF880BD00BFF90C00001081FF1F1281FF1F12
:400AC000EC82FF1F80B584B004AF02F0D1FA0346002B21D1184802F0EBFA02F0D9FA02F03FFB0123184602F081FB40F6A2531946124B1B881A46124B1B8803FB02F3114ADB
:400B0000128893FBF2F303FB01F3184602F084FA012002F09DFA0DE0002300930023019300230293002303930020302100220023FFF7DEFABD4680BDE50C00000E81FF1F11
:400B40001081FF1F0C81FF1F80B584B004AF264B1B78012B13D0022B20D0002B00D040E0002002F059FA214B00221A8002F0C8FBC82000F03DF81C4B01221A7031E0002020
:400B800002F04AFA194B00221A8002F0B9FBC82000F02EF8144B01221A7022E0124B00221A70002002F038FA104B00221A8002F0A7FB0023009300230193002302930023ED
:400BC00003930020302100220023FFF791FAC82000F0BEFD02F0C4FA02F05AFA02F07AFA00BFBD4680BD00BFEC82FF1FEE82FF1F80B588B004AF0346FB8040F6A252FB88D0
:400C0000934202D940F6A253FB80314B1B88FA889A4217D22E4B1A88FB88D31A7B817B892C4A128811462C4A128802FB01F22B49098892FBF1F202FB03F3FB600122284BAD
:400C40001A7034E0224B1B88FA889A4217D9204B1B88FA88D31A7B817B891E4A128811461D4A128802FB01F21C49098892FBF1F202FB03F3FB600022194B1A7017E00023D3
:400C80007B810023FB60124B1B881B0A9BB2DAB20F4B1B88DBB20021009100210191029203930120302100220023FFF721FA084AFB8813800A4B1B78184602F097FAF8684A
:400CC00002F0AAF9012002F0C3F91037BD4680BDEE82FF1F0E81FF1F1081FF1F0C81FF1F1281FF1F80B500AF02F03AFA02F0D0F9FFF72AFF80BD00BF80B584B004AF144B68
:400D00001B78012B19D0022B1DD0002B00D01BE0104B1B881B0A9BB2DAB20E4B1B88DBB20021009100210191029203930120302100220023FFF7DCF906E0054B02221A7081
:400D4000FFF7C0FE00E000BF02F0DAFABD4680BDEC82FF1FEE82FF1F90B589B004AF78600023FB810023BB817B681B780E2B00F2918101A252F823F0B50D0000BB0D0000BC
:400D8000DB0D0000FD0E00002D0F00005D0F0000A10E0000CF0E0000710E00007B0F0000A90F00001B1000002F1000004310000073100000FFF786FE6CE17B6806331B7895
:400DC0009BB21B029AB27B6807331B789BB213439BB21846FFF70CFF5CE1B14BDB881A46AF4B9B88D31A7A680132127802FB03F3AC4A82FB03125211DB17D31A9AB2A84B9D
:400E00009B881344FB81A64B5B881A46A44B1B88D31A7A6801321278C2F1640202FB03F3A04A82FB03125211DB17D31A9AB29C4B1B881344BB819C4BDA78FB8910461946C5
:400E4000FFF784FA03461846FFF71EFA964B1A79BB8910461946FFF779FA03461846FFF713FAFFF769FB03461846FFF70DFA11E17B68013319787B6803331B789BB21B021B
:400E80009AB27B6802331B789BB213449BB208461946FFF76FFA03461846FFF7F5F9F9E0814B99787B6802331B789BB21B029AB27B6801331B789BB213449BB20846194654
:400EC000FFF758FA03461846FFF7DEF9E2E0764B59787B6802331B789BB21B029AB27B6801331B789BB213449BB208461946FFF741FA03461846FFF7C7F9CBE07B680133E9
:400F000019787B6803331B789BB21B029AB27B6802331B789BB213449BB208461946FFF73DFA03461846FFF7AFF9B3E07B68013319787B6803331B789BB21B029AB27B6883
:400F400002331B789BB213449BB208461946FFF739FA03461846FFF797F99BE07B6801331A787B6802331B7810461946FFF7DAF903461846FFF788F98CE07B689A784B4B53
:400F80001A707B68013319787B6802331A787B6803331B78084611461A46FFF77DFA03461846FFF771F975E07B6803331B78012B02D0022B13D06DE07B68013319787B6849
:400FC00002331A787B6804331B78084611461A46FFF74CFA03461846FFF756F91CE07868FFF75CFC7B68013318787B68023319787B6805331B789BB21B029AB27B68043358
:401000001B789BB213449BB21A46FFF7EFF903461846FFF739F900BF3CE001F023FC034643F00103DBB2184601F00CFC32E001F019FC034623F00103DBB2184601F002FC7E
:4010400028E07B6801331C787B6801331B781846FFF702FC03460093002301930023029300230393002030210D222346FFF740F810E07B6801331B781846FFF793FB7B6827
:4010800001331A787B6802331B7810461946FFF7A7FB00BF002318461437BD4690BD00BFB881FF1F1F85EB51B081FF1FCD81FF1F80B400AF044B1B78044B01221A70BD4622
:4010C0005DF8047B704700BF034F0040CC81FF1F80B584B000AFFFF7E5FAFFF7EDFAFFF755F800F025F8FFF781FC01F0BBFB034643F00103DBB2184601F0A4FB62B60A4B0D
:401100001B78DBB2012B0ED1084B1B68002B0ADD054B00221A703B461846FEF7B3FF3B461846FFF719FEEAE7CC81FF1FC081FF1F80B500AF00F01CFF00F082FF002000F023
:40114000D3FD034801F028FD01F0CCFC80BD00BFB110000080B400AFFEE700BF80B584B000AF7860104B1A687B6813441A460F4BD31AB3F5007F09DC0B4B1B68FB600A4BFE
:401180001A687B681344084A136007E002F070FB02460C2313604FF0FF33FB60FB6818461037BD4680BD00BF1481FF1F2086FF1F80B586B000AF224B7B61224B3B61204B5F
:4011C0007B6135E03B691B68FB603B695B68BB603B699B683B6000237B600CE0FB681A68BB681A60BB680433BB60FB680433FB607B6804337B607A683B689A42EED13B6929
:40120000DB683B6000237B6008E0BB6800221A60BB680433BB607B6804337B607A683B689A42F2D13B6910333B617B69013B7B617B69002BC6D102F021FBFFF749FFFEE747
:4012400001000000383C000080B582B000AF174B174A1A60174A174B1B6843F40073136000237B600FE07B68032B04D8124A7B6852F8233000E0114B11497A6841F822308A
:401280007B6801337B607B682F2BECD90D4B1B78DAB20D4B1A700D4B094A1A6000F042F90B4B00221A600837BD4680BD0CED00E00004FA0514ED00E00000000055110000FD
:4012C0000080FF1FBC7600400481FF1F08ED00E00081FF1F80B582B000AF78603960786800213A6802F00BFB0837BD4680BD00BF80B584B000AFF860B9607A60F868B96883
:401300007A6802F0F1FA1037BD4680BD80B483B000AF0346FB71FEE780B487B000AF7860396000233B6100237B6127E07B699B007A6813441B68BB60BB68FB73BB6823F04A
:40134000FF03BB6014E03B695B003A6813441B781A46BB68134419463B695B003A6813445B780B703B6901333B61FB7B013BFB73FB7B002BE7D17B6901337B617B69202B42
:40138000D4D91C37BD465DF8047B704780B582B000AF394B02221A80384B18221A70384B05221A80374B18221A70374B05221A80364B18221A70364B40F2E7321A80354B08
:4013C00018221A70344B06221A70344B344A1278D2B21A70334B52221A70334B4FF4E1621A80324B41F251221A800023FB7019237B6013E0FB785B00DAB22D4B1B78DBB202
:4014000003F00103DBB21343DBB203F00303FB70782000F065F97B68013B7B607B68002B02D0FB78032BE5D17B68002B02D10320FFF76CFF1F4B4FF480721A801D4B07229B
:401440001A701D4B00221A701C4B48221A70194B00221A701A4B00221A701A4B02221A70194A194B1B78DBB243F00F03DBB213700837BD4680BD00BF8040004082400040C3
:401480008440004086400040884000408A4000408C4000408E40004000430040A14600400F01004900420040224200402042004025420040044000400640004008400040F2
:4014C0000940004001400040A243004080B483B000AF0E4B1B78FB710D4AFB7903F00703DBB213700B4AFB791B09DBB213700A4B08221A70094B01221A70094B44221A702C
:401500000C37BD465DF8047B704700BFCF0100496E5800406F580040FC5100409B5A00407658004080B586B000AF72B6534B00221A70FFF72BFF514B80221A70504A504B7C
:401540001B78DBB243F00403DBB213700023FB7513E0FA7D13465B0013445B00494A13443B613B691A683B699B889BB210461946FFF7B0FEFB7D0133FB75FB7D092BE8D9FC
:401580000023FB751CE0FA7D13469B0013445B003D4A1344FB60FB681B68BB60FB685B687B60FB681A7A5B7A1B0213437B807B88B86879681A46FFF79BFEFB7D0133FB75FB
:4015C000FB7D002BDFD04FF090403049FFF7A4FE2F4A2F4B1B78DBB243F00203DBB213702C4A2C4B1B78DBB243F00203DBB21370294A294B1B78DBB243F04003DBB213703C
:40160000264A264B1B78DBB243F01003DBB21370234824490A22FFF76BFE234823490822FFF766FE224823490A22FFF761FE224822490822FFF75CFE214822490A22FFF7F9
:4016400057FE214821490822FFF752FE204BC4221A70204A1F4B1B78DBB243F00803DBB213701D4B01221A70FFF730FF1B480A490E22FFF73DFE1837BD4680BD004800404D
:40168000E8460040683A0000A43A0000840000480350014013500140A0430040C2430040C051004094060048F2510040A006004810510040A806004832510040B4060048D0
:4016C00050510040BC06004862510040C8060048DB0401402243004004000840B0430040142816D902B4012114381049097811F0C001890904B40E4A515C04BC00BF00BF3A
:4017000000BF8841FDD500BF00BF02BC704700BF00BF70F10400FCD570470B050709EFF3108072B6704780F310887047004800401A170000AFF3008080B483B000AF034684
:40174000FB7101BE0C37BD465DF8047B704700BF80B582B000AF786008E00C4B1B681846FFF7BEFF7B68A3F500437B607B68B3F5004FF2D8064B1B687A6802FB03F31846A9
:40178000FFF7AEFF0837BD4680BD00BF2481FF1F1C81FF1F80B582B000AF0346FB80FB88044A127802FB03F31846FFF799FF0837BD4680BD2081FF1F80B584B000AF034617
:4017C0003960FB710F4B1B68FB60FB791F2B02D90020FFF7B1FFFB7903F01F0310339B00FA6813441B68BB60FB7903F01F0310339B00FA6813443A681A60BB68184610378B
:40180000BD4680BD08ED00E080B582B000AF03460A46FB711346BB71BB79072B02D90020FFF78AFFFB791F2B02D90020FFF784FFFB7903F01F0303F1604303F56443BA79EF
:401840005201D2B21A700837BD4680BD80B500AF054B1B78002B04D100F008F8024B01221A7000F02FF880BDD081FF1F80B500AF03200D49FFF7A0FF03200721FFF7C4FF1E
:401880000A4B00221A700A4B72221A70094B20221A70094B06221A70084B47221A70084B00221A7080BD00BF751B0000D181FF1F896500408A6500402A6500403A65004042
:4018C0008B65004080B582B000AFFFF728FF0346FB71114A104B1B78DBB243F02003DBB213700E4A0D4B1B78DBB243F01003DBB213700B4B08221A600A4A0A4B1B78DBB2AB
:4019000043F01003DBB21370FB791846FFF70BFF0837BD4680BD00BF996500409A65004000E100E09B65004080B483B000AF1C4B08221A601B4B1B78BB711B4B1B787B7198
:401940001A4B1B78DBB2002B03D1BA797B799A4218D0BB79164AD35CFB71BB790133BB71BB79072B01D90023BB710E4ABB7913700E4B1B78DBB2002B03D00C4B00221A701D
:4019800003E002E00B4B1B78FB710B4B08221A60FB7918460C37BD465DF8047B704700BF80E100E0D281FF1FD381FF1FD481FF1F1086FF1F4965004000E100E090B583B03F
:4019C00000AF0C4B08221A600B4B1B78FB800A4B00221A70094B08221A60FB881B029CB2FFF7A2FF03469BB223439BB218460C37BD4690BD80E100E0D181FF1F00E100E0AF
:401A000080B582B000AFFFF78AFE0346FB71144A134B1B78DBB243F00103DBB21370104A0F4B1B78DBB223F00103DBB21370FB791846FFF778FE0B4B08221A600A4B002290
:401A40001A700A4B00221A70094B00221A70094B00221A70084B08221A600837BD4680BD9965004080E100E0D281FF1FD381FF1FD481FF1FD581FF1F00E100E080B483B0F4
:401A800000AF0346FB7100BF074B1B78DBB203F00403002BF8D1054AFB7913700C37BD465DF8047B704700BF6B6500404B65004080B584B000AF78600B46FB700023FB7390
:401AC0000A4B1B78002B0ED009E0FB7B7A6813441B781846FFF7D2FFFB7B0133FB73FA7BFB789A42F1D31037BD4680BDD081FF1F80B483B000AF0E4B1B78FB71FB7903F03A
:401B00000403002B02D00423FB7109E0FB7903F00203002B02D00023FB7101E00123FB71FB7918460C37BD465DF8047B704700BF6B65004080B582B000AFFFF7F0FD034608
:401B4000FB710B4A0A4B1B78DBB243F00103DBB21370074A064B1B78DBB223F00103DBB21370FB791846FFF7DEFD0837BD4680BD9B65004080B483B000AF0023FB712B4B82
:401B80001B78BB71BB797B71BB7903F01E03002B0BD0BB7903F01E03DAB2254B1B78DBB21343DBB2DAB2224B1A70BB7903F02003002B30D01F4B1B787B711F4B1B78DBB246
:401BC00019461E4A7B7953540123FB71FB79002B21D01B4B1B78DBB2002B02D0194B01221A70154B1B78DBB20133DAB2124B1A70114B1B78DBB2072B02D90F4B00221A7019
:401C00000D4B1B78DAB2104B1B78DBB29A4202D10B4B01221A70BB7903F02003002BAED10C37BD465DF8047B704700BF6A650040D181FF1F49650040D381FF1F1086FF1FE9
:401C4000D481FF1FD581FF1FD281FF1F80B582B000AF786000F03CF8786800F009F8012000F018F800F028F80837BD4680BD00BF80B485B000AF7860054B1B68FB60FB6839
:401C800050337A681A601437BD465DF8047B704708ED00E080B483B000AF0346FB71054AFB795B01DBB213700C37BD465DF8047B704700BF04E400E080B400AF034B1022E2
:401CC0001A60BD465DF8047B704700BF00E100E080B400AF034B10221A60BD465DF8047B704700BF80E100E080B485B000AF0346FB710B4B1B78DBB223F01003FB730849C9
:401D0000FB791B01DBB203F01003DAB2FB7B1343DBB20B701437BD465DF8047B704700BF6051004080B582B000AF0023FB710023BB7112E0BA7913465B0013449B00174A77
:401D40001344184600F07CFB0346002B02D00123FB7105E0BB790133BB71BB79072BE9D9FB79002B15D10023BB710FE0BB791B010B4A1344184600F0EDFA0346002B02D096
:401D80000123FB7105E0BB790133BB71BB790F2BECD9FB7918460837BD4680BDB03A0000103B000080B582B000AF4FF470537B600123FB700123BB70FFF7B1FC03467B70B5
:401DC0003D4A3D4B1B78DBB243F00103DBB213703A4A3A4B1B78DBB243F00103DBB213707B781846FFF79FFC354A354B1B78DBB223F00103DBB2137002E07B68013B7B60F9
:401E00007B68002B06D02E4B1B78DBB203F00103002BF2D17B68002B49D02A4B4FF480321A6010202849FFF7C7FC10200721FFF7EBFC052000F044F90346002B1CD10020D3
:401E400000F060F90346002B16D1082005210322002300F08DF90346002B0DD1002000F0F1F90346002B07D1002000F021FA0346002B01D10023BB70BB78002B17D1FFF71F
:401E800051FF0346002B12D141F2012000F046FA0346002B0BD10A4B00221A70084B1B78DBB203F00103002B01D10023FB70FB7818460837BD4680BDA6430040B6430040FF
:401EC00010A0004080E100E06525000080B582B000AF4FF490637B600123FB70FFF71FFC0346BB701D4A1D4B1B78DBB243F00103DBB213701A4A1A4B1B78DBB243F0010396
:401F0000DBB21370BB781846FFF70DFC154B41F201221A6000F094F8134B4FF480321A60124A124B1B6843F00103136002E07B68013B7B607B68002B05D00C4B1B6803F016
:401F40000103002BF3D07B68002B01D00023FB70FB7818460837BD4680BD00BFA6430040B643004000A0004000E100E010A0004080B582B000AF0023FB710B4B1B78002B47
:401F800003D1FFF70FFF0346FB71FB79002B06D1054B01221A70FFF799FF0346FB71FB7918460837BD4680BDD781FF1F80B582B000AF4FF470537B600123FB701C4A1C4BC4
:401FC0001B6823F00103136002E07B68013B7B607B68002B05D0164B1B6803F00103002BF3D17B68002B1DD00023FB70114B4FF480321A60FFF793FB0346BB700E4A0E4B4E
:402000001B78DBB223F00103DBB213700B4A0B4B1B78DBB223F00103DBB21370BB781846FFF781FBFB7818460837BD4680BD00BF10A0004080E100E0A6430040B6430040C2
:4020400080B483B000AF0123FB710C4A0B4B1B78DBB243F00103DBB21370084B1B78DBB203F00103002B01D00023FB71FB7918460C37BD465DF8047B704700BF04A000406C
:4020800080B483B000AF0123FB710C4A0B4B1B78DBB223F00103DBB21370084B1B78DBB203F00103002B01D10023FB71FB7918460C37BD465DF8047B704700BF04A000404B
:4020C00080B485B000AF0346FB800223FB73FB881BB2002B0CDB0123FB73094AFB881380074B1B889BB2FA889A4201D10023FB73FB7B18461437BD465DF8047B704700BFA5
:4021000016A0004080B485B000AF0346FB710123FB73FB79002B11D1144A144B5B78DBB223F01003DBB25370104B5B78DBB203F01003002B13D10023FB7310E00B4A0B4B3A
:402140005B78DBB243F01003DBB25370074B5B78DBB203F01003002B01D00023FB73FB7B18461437BD465DF8047B704714A0004090B484B000AF0446084611461A462346A4
:40218000FB710346BB710B467B7113463B710223FB73FB79012B4CD9FB790F2B49D8BB79012B02D9BB79072B05D93B79002B40D1BB79012B3DD17B79032B3AD87A79FB795D
:4021C0009A4236D87A79BB799A4232D80123FB731B4B5B78BB73BB7B23F00F03BB73BA7BFB791343BB73164ABB7B5370144B5B78DBB2BA7B9A421CD10023BB733B79002BF3
:4022000001D00223BB73BB795B01DAB27B799B00DBB21343DAB2BB7B1343BB73084ABB7B1370074B1B78DBB2BA7B9A4201D10023FB73FB7B18461037BD4690BC704700BFD5
:4022400014A0004080B485B000AF0346FB710123FB73FB79002B11D1144A144B1B78DBB223F01003DBB21370104B1B78DBB203F01003002B13D10023FB7310E00B4A0B4BBB
:402280001B78DBB243F01003DBB21370074B1B78DBB203F01003002B01D00023FB73FB7B18461437BD465DF8047B704714A0004080B485B000AF0346FB710123FB73FB792F
:4022C000002B11D1144A144B1B78DBB223F00103DBB21370104B1B78DBB203F00103002B13D10023FB7310E00B4A0B4B1B78DBB243F00103DBB21370074B1B78DBB203F054
:402300000103002B01D00023FB73FB7B18461437BD465DF8047B704714A0004080B485B000AF0346FB800123FB73094AFB881380074B1B889BB2FA889A4201D10023FB7391
:40234000FB7B18461437BD465DF8047B704700BF04A0004080B485B000AF78600123FB737B681B785A01354B13441A467B685B6843F0801313607B681B785A012F4B134402
:402380001B6803F07F127B685B6823F080139A424DD17B681B785A01284B134410337A6892681A607B681B785A01244B134410331A687B689B689A4239D17B681B785A01A3
:4023C0001E4B134414337A68D2681A607B681B785A011A4B134414331A687B68DB689A4225D17B681B785A01144B134418334FF0FF321A607B681B785A01104B1344183368
:402400001B68B3F1FF3F12D17B681B785A010B4B13441C3300221A607B681B785A01074B13441C331B68002B01D10023FB73FB7B18461437BD465DF8047B7047A0A00040E4
:4024400080B485B000AF78600123FB737B681B781A011B4B13441A467B685B6843F4000343F0080313607B681B781A01144B13441B68144A1A407B685B6823F4000323F046
:4024800008039A4215D17B681B781A010C4B134404337A6892681A607B681B781A01084B134404331A687B689B689A4201D10023FB73FB7B18461437BD465DF8047B7047BD
:4024C00020A00040F7007F0080B500AF034B02225A70FFF7D5FDFFF769FD80BD00A0004080B582B000AF0123BB801B4B10225A700023FB7129E0194B1B889AB2BB881340AD
:402500009BB2002B1BD0FB795A01154B13441B78DBB203F02003002B11D0BB8803F001039BB2002B07D0FB79002B00D002E000F00DF900BF03E0FB79184600F0E3F8BB881E
:402540005B00BB80FB790133FB71FB790F2BD2D90837BD4680BD00BF00A0004008A00040A0A0004080B500AF094B5B78DBB203F00203002B01D0FFF7A7FF054B5B78DBB2FA
:4025800003F01003002B01D0FFF7AAFF80BD00BF00A0004080B487B000AF786000233B750123FB749BE001237B750023FB758BE0504B9B78DAB27B7D1340DBB2002B79D132
:4025C0000023FB607B681B79002B02D04FF40013FB607B685B79002B09D1FB7D1A01464B134404337A68126852051A600CE0FB6843F48013FB60FB7D1A013F4B134404337E
:402600007A681268D2001A607B689B79072B06D87B689B791B04FA681343FB6003E0FB6843F40023FB607B68DB79002B03D0FB6843F00403FB600023BB7517E0FB7D1A01BD
:402640002D4B1344BA7D032A03D9BA7DC2F10B0202E0BA7DC2F1030279688868B97D415C13440A461A72BB7D0133BB757B689B79BA7D9A4202D2BB7D072BDFD91F4B4FF463
:4026800080321A60FB7D1A011B4B13441A46FB6843F4000343F008031360FB7D1A01164B13441A4601231360154B4FF480321A600023FB747B7D5B007B75FB7C002B00D197
:4026C00006E0FB7D0133FB75FB7D072B7FF670AFFB7C002B00D106E03B7D01333B753B7D022B7FF660AFFB7C18461C37BD465DF8047B704708A0004020A0004080E100E05D
:4027000000E100E080B483B000AF0346FB71FB795A010D4B13441B78DBB203F00103002B0DD0FB795A01084B1344FA795101064A0A441278D2B242F00102D2B21A700C3700
:40274000BD465DF8047B7047A0A0004080B483B000AF364B1B68364A9278D2B202F00F02D1B2344A1B01134408330A461A702F4B1A682F4B9B78DBB203F010031B11002B24
:4027800003D02D4B1B68DB0802E02B4B1B685B0D284912010A440832536000237B6019E0224B1A6822497B68032B03D97B68C3F10B0302E07B68C3F103030B441B7AD8B296
:4027C0001C4912017B6813440B4402461A707B6801337B60154B1B68164A1B01134408331B781A467B689A42DADC144B1B680133124A13600D4B1B685A1C114B83FB021396
:402800001911D317CB1A322101FB03F3D31A074A1360074A064B1B78DBB243F00103DBB213700C37BD465DF8047B7047C881FF1FA0A00040F082FF1FA4A00040C081FF1F75
:402840001F85EB5180B483B000AF0346FB71044AFB7913700C37BD465DF8047B704700BF7865004080B400AF034B1B78DBB21846BD465DF8047B70477865004080B500AF7D
:4028800000F0C0FD00F0D0FD80BD00BF80B500AFFFF7F4FF80BD00BF80B584B000AF03460A46FB711346BB8000F02CFEBB88B3F5006F75D2BB881B097B817B891A461203A1
:4028C000D31A1B019AB2BB8813443B8100F050FF0346002B61D13A89FB1D402011461A46012300F05DFEF860FB68072B4CD14FF0FF33FB6000BF2E4B1B78DBB203F00203C1
:40290000002BF8D02A4B1B78DBB203F00203002B08D0274B1B78DBB29B08DBB2002B01D10023FB60FB68002B2AD1224B1A78214B5B787989402000F09DFE0346072B1BD1BC
:402940004FF0FF33FB6000BF194B1B78DBB203F00203002BF8D0164B1B78DBB203F00203002B17D0124B1B78DBB29B08DBB2002B10D10023FB600DE04FF0FF33FB6009E0F9
:402980004FF0FF33FB6005E0FB68012B02D04FF0FF33FB6000F020FF04E00423FB6001E00123FB60FB6818461037BD4680BD00BF224700401886FF1F80B584B000AF034697
:4029C000FB80FEF7ACFE0346FB7300F073FDFB8803F1804303F500431B78BB7300F082FDFB7B1846FEF79FFEBB7B18461037BD4680BD00BF80B500AF00F004FD0346DBB216
:402A0000184680BD80B500AF204A204B1B78DBB203F00103DBB213701D4A1D4B1B78DBB223F00303DBB213701A4A1A4B1B78DBB243F00103DBB21370174A174B1B78DBB2F0
:402A400023F03003DBB21370134A134B1B78DBB243F03003DBB213700F4A0F4B1B78DBB223F00F03DBB213700B4A0B4B1B78DBB243F00F03DBB21370482000F07DF800209A
:402A800000F050F8082000F03DF880BD004F0040024F0040014F00400B4F004080B400AF0D4A0D4B1B78DBB243F00103DBB213700A4A0A4B1B78DBB243F00103DBB2137001
:402AC000074A074B1B78DBB243F00103DBB21370BD465DF8047B7047A3430040B3430040004F004080B500AF054B1B78002B04D1FFF788FF024B01221A70FFF7CFFF80BD14
:402B0000D881FF1F80B483B000AF0346FB71044AFB7913700C37BD465DF8047B704700BF034F004080B582B000AF0346FB71104B1B78DBB203F00103002B02D00020FEF79D
:402B4000FBFD0B4A0A4B1B78DBB243F00103DBB21370084BFA7992B21A80054A044B1B78DBB223F00103DBB213700837BD4680BDA3430040064F004080B483B000AF03462A
:402B8000FB71044BFA7992B21A800C37BD465DF8047B7047044F004080B582B000AF786000F03CF8786800F009F8022000F018F800F028F80837BD4680BD00BF80B485B0E9
:402BC00000AF7860054B1B68FB60FB6840337A681A601437BD465DF8047B704708ED00E080B483B000AF0346FB71054AFB795B01DBB213700C37BD465DF8047B704700BFB6
:402C000000E400E080B400AF034B01221A60BD465DF8047B704700BF00E100E080B400AF034B01221A60BD465DF8047B704700BF80E100E080B400AF094A094B1B78DBB2EE
:402C400043F00403DBB21370064A064B1B78DBB243F00403DBB21370BD465DF8047B7047A2430040B243004080B500AF054B1B78002B04D100F008F8024B01221A7000F076
:402C800037F880BDD981FF1F80B582B000AF154B1B78DBB223F03F03FB71124AFB7943F00D03DBB21370104A0F4B1B78DBB243F00103DBB213700D4A0C4B1B78DBB243F09A
:402CC0000103DBB2137040F2DC5000F021F840F2DC5000F02DF840F2EE2000F039F80837BD4680BD77640040966400409764004080B400AF054A054B1B78DBB263F07F03FF
:402D0000DBB21370BD465DF8047B70477764004080B483B000AF0346FB80044AFB8813800C37BD465DF8047B704700BF0C68004080B483B000AF0346FB80044AFB8813801A
:402D40000C37BD465DF8047B704700BF8C68004080B483B000AF0346FB80044AFB8813800C37BD465DF8047B704700BF4C68004080B500AF064B00221A70064B00221A70EF
:402D8000042000F057F8002000F034F880BD00BF2C5800402D58004080B400AF094A094B1B78DBB243F00803DBB21370064A064B1B78DBB243F00803DBB21370BD465DF890
:402DC000047B7047A8430040B843004080B500AF074B1B78002B04D1FFF7CAFF044B01221A70FFF7D9FF322000F044F880BD00BFDA81FF1F80B483B000AF0346FB710C4AD1
:402E00000B4B1B78DBB223F00203DBB213700849074B1B78DAB2FB7903F00203DBB21343DBB20B700C37BD465DF8047B704700BF2C58004080B582B000AF0346FB710C4A66
:402E40000B4B1B78DBB223F00C03DBB213700849074B1B78DAB2FB7903F00C03DBB21343DBB20B7000F016F80837BD4680BD00BF2C58004080B483B000AF0346FB71044A6E
:402E8000FB7913700C37BD465DF8047B704700BF835B004080B483B000AF0B4B1B78DBB203F00C039B08DBB20633FB71074AFB7903F1924303F59C731B78DBB213700C378F
:402EC000BD465DF8047B70472C5800400B46004080B582B000AF1C4B1B78DBB223F00703FB71194AFB7943F00403DBB21370164B1B78DBB223F00303FB71134AFB7913704E
:402F000000F098F84FF0FF3000F078F8002000F05BF8012000F03CF800F04AF8002000F07BF8FEF7FCFB0346BB71084A074B1B78DBB243F01003DBB21370BB791846FEF7E4
:402F4000F2FB0837BD4680BD726400409564004080B400AF054A054B1B78DBB263F07F03DBB21370BD465DF8047B70477264004080B500AF054B1B78002B04D1FFF7A8FF07
:402F8000024B01221A70FFF7E3FF80BDDB81FF1F80B483B000AF0346FB71044AFB7913700C37BD465DF8047B704700BF8564004080B400AF034B1B78DBB21846BD465DF8B8
:402FC000047B70476564004080B483B000AF7860034A7B6813600C37BD465DF8047B70470264004080B400AF034B1B681846BD465DF8047B704700BF4264004080B483B0DE
:4030000000AF7860034A7B6813600C37BD465DF8047B70472264004080B483B000AF7860034A7B6813600C37BD465DF8047B70473264004080B500AF01E0FFF7D3FFFFF714
:40304000B7FF034603F04003002BF6D180BD00BF80B483B000AF0346FB71044AFB7913700C37BD465DF8047B704700BF7364004080B400AF054B1B78DBB203F00303DBB29D
:403080001846BD465DF8047B704700BF3151004080B400AF054B1B78DBB203F00303DBB21846BD465DF8047B704700BF8345004080B582B000AF786000F046F8786800F02B
:4030C00013F8072000F022F800F032F80837BD4680BD00BF80B500AF00F036F8014800F003F880BD5511000080B485B000AF7860054B1B68FB60FB6844337A681A601437C4
:40310000BD465DF8047B704708ED00E080B483B000AF0346FB71054AFB795B01DBB213700C37BD465DF8047B704700BF01E400E080B400AF034B02221A60BD465DF8047B37
:40314000704700BF00E100E080B400AF034B02221A60BD465DF8047B704700BF80E100E080B400AF034B02221A60BD465DF8047B704700BF80E200E080B485B000AF0346FC
:40318000FB710B4B1B78DBB223F00203FB730849FB795B00DBB203F00203DAB2FB7B1343DBB20B701437BD465DF8047B704700BFC051004080B485B000AF0346FB710A4B97
:4031C0001B78DBB223F00103FB730749FB7903F00103DAB2FB7B1343DBB20B701437BD465DF8047B704700BFC051004080B485B000AF0346FB710B4B1B78DBB223F00403C9
:40320000FB730849FB799B00DBB203F00403DAB2FB7B1343DBB20B701437BD465DF8047B704700BFF051004080B485B000AF0346FB710B4B1B78DBB223F00803FB730849A0
:40324000FB79DB00DBB203F00803DAB2FB7B1343DBB20B701437BD465DF8047B704700BFC051004080B582B000AF786000F03CF8786800F009F8072000F018F800F028F811
:403280000837BD4680BD00BF80B485B000AF7860054B1B68FB60FB6848337A681A601437BD465DF8047B704708ED00E080B483B000AF0346FB71054AFB795B01DBB21370D0
:4032C0000C37BD465DF8047B704700BF02E400E080B400AF034B04221A60BD465DF8047B704700BF00E100E080B400AF034B04221A60BD465DF8047B704700BF80E100E03A
:4033000080B400AF034B04221A60BD465DF8047B704700BF80E200E080B582B000AF00F0F1F84FF0FF337B6000F022FA0346002B24D1012000F0EAF90346072B1BD11348C7
:40334000022100F001F90346022B0DD100237B6002E00120FEF71EFA0D4B1B78DBB203F00203002BF5D006E0094B1B78DBB203F00203002BE3D000F02FFA01E004237B6052
:403380007B6818460837BD4680BD00BF1886FF1F2247004080B582B000AF00F0B3F800F0E7F90346002B23D100F03EFA78607B68072B1AD102E00120FEF7ECF9104B1B7875
:4033C000DBB203F00203002BF5D00D4B1B78DBB203F00203002B08D0094B1B78DBB29B08DBB2002B01D100237B6000F0F5F901E004237B607B6818460837BD4680BD00BF06
:403400002247004080B582B000AFFFF7C3FF78607B68002B02D1FFF77FFF78607B6818460837BD4680BD00BF80B582B000AFFEF776F90346FB71194A184B1B78DBB243F049
:403440000803DBB21370164A154B1B78DBB243F00803DBB21370134BC8221A70124A124B1B78DBB243F01003DBB213700F4A0F4B1B78DBB243F01003DBB2137000BF0C4BC3
:403480001B78DBB203F02003002BF8D0FB791846FEF749F90837BD4680BD00BFA0430040B043004001470040AC430040BC4300400047004080B400AF094A094B1B78DBB21F
:4034C00043F00103DBB2137000BF054B1B78DBB203F00203002BF8D0BD465DF8047B70470247004080B400AF054A054B1B78DBB223F00103DBB21370BD465DF8047B7047FD
:403500000247004080B582B000AFFEF708F90346FB710B4A0A4B1B78DBB243F00803DBB21370084A074B1B78DBB243F00803DBB21370FB791846FEF7F6F80837BD4680BDE3
:40354000A0430040B043004080B584B000AF78600B46FB700023FB7314E002E00120FEF719F90D4B1B78DBB203F00103002BF5D0FB7B7A681344094A1278D2B21A70FB7B4B
:403580000133FB73FA7BFB789A42E6D3FB7B18461037BD4680BD00BF224700402047004080B485B000AF3A601A460346FB710B46BB801346BB710723FB60FB793E2B02D86E
:4035C000BB791F2B05D9FB793F2B46D9BB790F2B43D8264B1B78DBB203F00203002B38D0234BB6221A70224BD4221A70204B01221A701E4B1B78DBB203F00203002B25D1B6
:403600001B4AFB7913701A4ABB881B0A9BB2DBB203F00103DBB21370154BBA88D2B21A70134ABB79013BDBB213700023FB7208E00F49FB7A3A6813441B780B70FB7A0133FF
:40364000FB72FA7ABB799A42F2D305E00923FB6005E00423FB6002E001E00123FB60FB6818461437BD465DF8047B7047224700402047004090B484B000AF0446084611467F
:403680001A462346FB710346BB800B46BB711346FB700723FB601B4B1B78DBB203F00203002B26D0184BB6221A70174BD8221A70154B05221A70134B1B78DBB203F00203BA
:4036C000002B13D1104AFB7913700F4ABB881B0A9BB2DBB213700C4BBA88D2B21A700A4ABB791370084AFB78137004E00923FB6001E00423FB60FB6818461037BD4690BC2D
:40370000704700BF224700402047004080B485B000AF0346FB710723FB60134B1B78DBB203F00203002B16D0104BB6221A700F4BE1221A700D4B0E221A700B4B1B78DBB2BE
:4037400003F00203002B03D1084AFB79137004E00923FB6001E00423FB60FB6818461437BD465DF8047B7047224700402047004080B582B000AF04237B60FDF7D0FF03462D
:40378000FB70124B1B78002B16D1104B01221A7000237B600E4B1B6803F00103002B0BD00B4A0B4B1B6823F00103136000BF00BF00BF084B01221A60FB781846FDF7B3FF61
:4037C0007B6818460837BD4680BD00BFDC81FF1F04000840E081FF1F80B582B000AFFDF79EFF0346FB710D4B00221A700C4B1B68012B0BD10B4A0B4B1B6843F001031360EA
:4038000000BF00BF00BF064B00221A60FB791846FDF789FF0837BD4680BD00BFDC81FF1FE081FF1F0400084080B483B000AF07237B600D4B1B78DBB203F00203002B09D0FD
:403840000A4BB6221A70094BE0221A70074B0D221A7001E004237B607B6818460C37BD465DF8047B704700BF2247004020470040014B1868704700BF8881FF1F0E4B70B5BB
:403880001E460E4C0025E41AA410A54204D056F8253098470135F8E700F0BCF9084B094C1E46E41AA4100025A54204D056F8253098470135F8E770BD203C0000203C000062
:4038C000203C0000283C0000024B0146186800F063B800BF8881FF1F024B0146186800F017B800BF8881FF1F10B5431E0A44914204D011F8014B03F8014FF8E710BD03469A
:403900000244934202D003F8011BFAE77047000030B500293CD051F8042C0B1F1D49002AB8BF9B180A680C4612B95A600B6030BD93420DD219685818904201BF5A58521880
:403940001A60426823605A6030BD994203D80A4651680029F9D1146815199D420AD11B682344D0188842136012D10868034413604B680CE002D90C23036030BD1C68181919
:40398000884201BF08684968001918605960536030BD00BFE881FF1F70B5CC1C24F0030408340C2C38BF0C24002C064603DA0C233360002070BD8C42F9D3204A1368104630
:4039C0001946A1B10A68121B0ED40B2A03D90A608B188C501FE08B420BBF5A684A6802605A6018BF0B4616E00B464968E9E7144D2B681BB9304600F025F8286030462146D5
:403A000000F020F8421C0346D1D0C51C25F0030585420AD11C6003F10B001A1D20F00700821A0AD05142995070BD3046E91A00F009F80130BBD02B46ECE770BDE881FF1F90
:403A4000E481FF1F38B5064C0023054608462360FDF784FB431C02D1236803B12B6038BD1C86FF1F00000000004F00400C0000510040100020510040100040510040100043
:403A800000000140001000140140800400190140000300400140000A004C014000020050014020008018014014060048800000000000000008008800000000000100000068
:403AC0000800880000000000020000000800880000000000030000000800880000000000040000000800880000000000050000000800880000000000060000000800880052
:403B0000000000000700000008008800000000000000000028000000F9FF1F00000000060100000000000000000000000000000002000000000000000000000000000000A6
:403B40000300000000000000000000000000000004000000000000000000000000000000050000000000000000000000000000000600000000000000000000000000000033
:403B80000700000000000000000000000000000008000000000000000000000000000000090000000000000000000000000000000A000000000000000000000000000000E3
:403BC0000B0000000000000000000000000000000C0000000000000000000000000000000D0000000000000000000000000000000E00000000000000000000000000000093
:403C00000F00000000000000000000000000000043000000F8B500BFF8BC08BC9E4670474D00000049120000F8B500BFF8BC08BC9E46704729000000483C00000881FF1F38
:403C40008800000090040000000000005000C800040001002086FF1F00366E01C05D0000180000000000E02E0000000000000000000000000000000000000000000000005F
:403C80000000000000000000103C000000000000000000000000000000000000000000000000000000000000000000000000000000000000000000000000000000000000B8
:403CC00000000000000000002881FF1F00000000000000000000000000000000000000000000000000000000000000000000000000000000000000000000000000000000FD
:403D00000000000000000000000000000000000000000000000000000000000000000000000000000000000000000000000000000000000000000000000000000000000083
:403D40000000000000000000000000000000000000000000000000000000000000000000000000000000000000000000000000000000000000000000000000000000000043
:403D80000000000000000000000000000000000000000000000000000000000000000000000000000000000000000000000000000000000000000000000000000000000003
:403DC00000000000000000000000000000000000000000000000000000000000000000000000000000000000000000000000000000000000000000000000000000000000C3
:020000040003F7
:0200000480007A
:4000000002450040024F00400652004001640040046500404B020140200301404804014030050140410601401807014001090140020B014001150140021701401A18014028
:400040003D190140741A0140571B014009400140064101401342014002430140024401400145014001460140014701400848014004490140034C0140154D01400550014032
:40008000025101401801190101300A4B08041C0329802C40602461648567780189728A388B0F01010204040213021A011D012202250229022C032F023204330234033701A2
:4000C00039803F444024410349FF4AFF4BFF4DA04F0150185280580459045A045B045C025D225F016040628064406540668068406A506BA86C406D206E506FA8BE40C02104
:40010000C103C9FFCAFFCBFFCDAFCE07CF01D018D201D301D610D804DA04DB04DD22DF01E040E280E440E540E680E840EA50EBA8EC40ED20EE50EFA8050406800E04148029
:4001400015801A021E041F18240127322E802F1A3480350236803C0240014108431045084722680169806A807502C030C240C490CA70CC90CE80D0EE4021410349FF4AFFBD
:400180004BFF4DAF4E074F0150185A045D025F016040628064406540668068406A506BA86C406D206E506FA88D0190019E049F02A003A902AF01B002B101B204B401B502B5
:4001C000BE10BF11C024C103C50CC625C70EC81FC9FFCAFFCBFFCDAFCE07CF01D018D407D604D804D904DA04DB04DC02DD22DF05E040E280E440E540E680E840EA50EBA8CB
:40020000EC40ED20EE50EFA80E400F0116801C081D041E401F04240427402F0636803E40400141084310450847124E804F05568857105C845F1063306501660867047E4035
:4002400081018340900192809B129D04A508A680A702AE01C290C410CA30CC10CE10D0EED670D8E0DE80E28038083E044060410249FF4AFF4BFF4DA04F04501858045A0425
:400280005D025F01604062C06440654066C068C06AC06CC06EC0863E88308A068C0C8E229201A020A208A40EA610A802AA24B03EB401C020C106C501C702C813C9FFCAFF2C
:4002C000CBFFCDAFCE0FCF04D018D287D804DA04DB04DC02DD22DF01E040E2C0E440E540E6C0E8C0EAC0ECC0EEC000240140090210A818041B121D084004460448904A08C6
:400300004F20520C682869407102A508A702AC84C007C208C40ED024D2249C408840E280EC10E080E2040201061008040C08161019011E0220012202240828082E0430038A
:4003400032043408350136103E413F105608580859045B045C095D905F010004018203040680072609200A980E200F0210A81201152816011701180419861B201C081D607C
:400380001E50200222512320270829822B0832443320362038A840044102430848054A10521059045E406401670269286B126F0170FC78017F0183408B019C40C0FFC2AE0A
:4003C000C4FFCA0DCC2ECE0ED007D20CD612D810DE11E08000100240071309310B060E030F0C10DC112C122213031A201B801C0C1E711F082009213122D0230E24142810A2
:400400002AAC2B802D4030E0310F33303580361F374039083A023B023F544006454049FF4A074BFF4C404D204EF04F05500854185604580B590B5A0B5B0B5C995D995F0119
:40044000604061A862406320832084E186028DA88F5191CD9310944995CD9680973098409AA99E16A10CA350A8E1A902AA04AB54AC20AE49B103B218B33CB4E0B580B607E6
:40048000B740B922BA80BB08BE04BF40C026C104C50EC60CC70BC815C9FFCAFFCBFFCEF0CF44D00CD401D604D808D908DA08DB08DC99DD99DF01E6C0EA40EB02018207104E
:4004C000088009020B080E26110A13201520160119811E061F0820802102224823042460250126542724288029812A102F843080310232103501360438683C803D024480AD
:400500004720488049024A084C044E2050045304550457805A025C225E805F0861406384644078017F018002822083048C208E418F80912092229302980199409A109B1814
:400540009C409E019F04A620A748B102B320B680C029C2EBC4CECAADCCCDCE9ED0A0D224D6F1D88DDE11E001EC103002328035803608382050105208CCF0CE103040942043
:400580009D80A402A680CC10128057105B0280028310884094209B029C409D80A402A680AF02C410D440D640E220E680EE4094209D801010C40898109810981022042510D8
:4005C00080108A0494209D80C860E22029809D80B510CA1054109810D40209201B021C2062206B20732078107F0283208D208E209810A410C202C60CD802DA02DC01DE0609
:40060000E008E602000408040A0411011D0100FE010F000073008800FF0600000002020073048400CF00300000000319003F8C0000390006200E00311000000030110000BA
:40064000010700383F10400E0020B0070020A2800000040056020400030CE00009FFFFFF62A0F0410C000000000002120B0B0B0B99990001000000000000400200103010EB
:400680000010101200000000000000000000000000000000000013ECEF00640000000000000404000000080004000004040004000000000003000000000000008000408053
:4006C000800080800000000000101000000000000000000000000000000000000000000000000000000000000000000000000000000000000000000000000000000000005A
:4007000000000000000000000000000000000000000000000000000000000000000000000000000000000000000000000000000000000000000000000000000000000000B9
:400740000000000000000000000000000000000000000000000000000000000000000000000000000000000000000000000000000000000000000000000000000000000079
:400780000000000000000000000000000000000000000000000000000000000000000000000000000000000000000000000000000000000000000000000000000000000039
:4007C00000000000000000000000000000000000000000000000000000000000000000000000000000000000000000000000000000000000000000000000000000000000F9
:0200000490006A
:040000000080400438
:0200000490105A
:04000000BC90ACAF55
:0200000490303A
:0200000034A723
:0200000490402A
:4000000000000000000000000000000000000000000000000000000000000000000000000000000000000000000000000000000000000000000000000000000000000000C0
:400040000000000000000000000000000000000000000000000000000000000000000000000000000000000000000000000000000000000000000000000000000000000080
:400080000000000000000000000000000000000000000000000000000000000000000000000000000000000000000000000000000000000000000000000000000000000040
:4000C0000000000000000000000000000000000000000000000000000000000000000000000000000000000000000000000000000000000000000000000000000000000000
:0200000490501A
:0C00000000012E12306900012E2B65104B
:00000001FF